{
  "_format": "hh-sol-artifact-1",
  "contractName": "CaseStorage",
  "sourceName": "contracts/CaseStorage.sol",
  "abi": [
    {
      "inputs": [
        {
          "internalType": "bytes32",
          "name": "",
          "type": "bytes32"
        }
      ],
      "name": "cases",
      "outputs": [
        {
          "internalType": "string",
          "name": "",
          "type": "string"
        }
      ],
      "stateMutability": "view",
      "type": "function"
    },
    {
      "inputs": [],
      "name": "casesReturn",
      "outputs": [
        {
          "internalType": "string[]",
          "name": "",
          "type": "string[]"
        }
      ],
      "stateMutability": "view",
      "type": "function"
    },
    {
      "inputs": [
        {
          "internalType": "string",
          "name": "str",
          "type": "string"
        }
      ],
      "name": "convertStrToBytes32",
      "outputs": [
        {
          "internalType": "bytes32",
          "name": "",
          "type": "bytes32"
        }
      ],
      "stateMutability": "pure",
      "type": "function"
    },
    {
      "inputs": [
        {
          "internalType": "bytes32",
          "name": "",
          "type": "bytes32"
        }
      ],
      "name": "evidences",
      "outputs": [
        {
          "internalType": "string",
          "name": "caseId",
          "type": "string"
        },
        {
          "internalType": "string",
          "name": "cid",
          "type": "string"
        },
        {
          "internalType": "string",
          "name": "desc",
          "type": "string"
        }
      ],
      "stateMutability": "view",
      "type": "function"
    },
    {
      "inputs": [],
      "name": "evidencesReturn",
      "outputs": [
        {
          "internalType": "string[]",
          "name": "",
          "type": "string[]"
        }
      ],
      "stateMutability": "view",
      "type": "function"
    },
    {
      "inputs": [
        {
          "internalType": "string",
          "name": "caseId",
          "type": "string"
        }
      ],
      "name": "getCase",
      "outputs": [
        {
          "internalType": "string",
          "name": "",
          "type": "string"
        }
      ],
      "stateMutability": "view",
      "type": "function"
    },
    {
      "inputs": [
        {
          "internalType": "string",
          "name": "caseId",
          "type": "string"
        }
      ],
      "name": "getEvidence",
      "outputs": [
        {
          "components": [
            {
              "internalType": "string",
              "name": "caseId",
              "type": "string"
            },
            {
              "internalType": "string",
              "name": "cid",
              "type": "string"
            },
            {
              "internalType": "string",
              "name": "desc",
              "type": "string"
            }
          ],
          "internalType": "struct CaseStorage.Evidences",
          "name": "",
          "type": "tuple"
        }
      ],
      "stateMutability": "view",
      "type": "function"
    },
    {
      "inputs": [
        {
          "internalType": "string",
          "name": "caseId",
          "type": "string"
        },
        {
          "internalType": "string",
          "name": "ipfsHash",
          "type": "string"
        }
      ],
      "name": "setCase",
      "outputs": [],
      "stateMutability": "nonpayable",
      "type": "function"
    },
    {
      "inputs": [
        {
          "internalType": "string",
          "name": "caseId",
          "type": "string"
        },
        {
          "components": [
            {
              "internalType": "string",
              "name": "caseId",
              "type": "string"
            },
            {
              "internalType": "string",
              "name": "cid",
              "type": "string"
            },
            {
              "internalType": "string",
              "name": "desc",
              "type": "string"
            }
          ],
          "internalType": "struct CaseStorage.Evidences",
          "name": "evid",
          "type": "tuple"
        }
      ],
      "name": "setEvidence",
      "outputs": [],
      "stateMutability": "nonpayable",
      "type": "function"
    }
  ],
  "bytecode": "0x608060405234801561001057600080fd5b5061148e806100206000396000f3fe608060405234801561001057600080fd5b50600436106100935760003560e01c8063b16c6ee711610066578063b16c6ee714610120578063cb061ef414610150578063d4e0682614610180578063d84c09de146101b0578063f9840bb8146101e257610093565b80633c460254146100985780633f42b329146100b457806348ea1c23146100d25780635387bf4a14610102575b600080fd5b6100b260048036038101906100ad9190610b3d565b6101fe565b005b6100bc610262565b6040516100c99190610cf6565b60405180910390f35b6100ec60048036038101906100e79190610d4e565b61033b565b6040516100f99190610dc5565b60405180910390f35b61010a6103db565b6040516101179190610cf6565b60405180910390f35b61013a60048036038101906101359190610de7565b6104b4565b6040516101479190610e8e565b60405180910390f35b61016a60048036038101906101659190610de7565b61069f565b6040516101779190610ebf565b60405180910390f35b61019a60048036038101906101959190610de7565b6106cf565b6040516101a79190610dc5565b60405180910390f35b6101ca60048036038101906101c59190610d4e565b61077b565b6040516101d993929190610eda565b60405180910390f35b6101fc60048036038101906101f79190610f26565b61093d565b005b60038290806001815401808255809150506001900390600052602060002001600090919091909150908161023291906111b4565b5080600160006102418561069f565b8152602001908152602001600020818161025b919061144a565b9050505050565b60606003805480602002602001604051908101604052809291908181526020016000905b828210156103325783829060005260206000200180546102a590610fcd565b80601f01602080910402602001604051908101604052809291908181526020018280546102d190610fcd565b801561031e5780601f106102f35761010080835404028352916020019161031e565b820191906000526020600020905b81548152906001019060200180831161030157829003601f168201915b505050505081526020019060010190610286565b50505050905090565b6000602052806000526040600020600091509050805461035a90610fcd565b80601f016020809104026020016040519081016040528092919081815260200182805461038690610fcd565b80156103d35780601f106103a8576101008083540402835291602001916103d3565b820191906000526020600020905b8154815290600101906020018083116103b657829003601f168201915b505050505081565b60606002805480602002602001604051908101604052809291908181526020016000905b828210156104ab57838290600052602060002001805461041e90610fcd565b80601f016020809104026020016040519081016040528092919081815260200182805461044a90610fcd565b80156104975780601f1061046c57610100808354040283529160200191610497565b820191906000526020600020905b81548152906001019060200180831161047a57829003601f168201915b5050505050815260200190600101906103ff565b50505050905090565b6104bc61099e565b600160006104c98461069f565b81526020019081526020016000206040518060600160405290816000820180546104f290610fcd565b80601f016020809104026020016040519081016040528092919081815260200182805461051e90610fcd565b801561056b5780601f106105405761010080835404028352916020019161056b565b820191906000526020600020905b81548152906001019060200180831161054e57829003601f168201915b5050505050815260200160018201805461058490610fcd565b80601f01602080910402602001604051908101604052809291908181526020018280546105b090610fcd565b80156105fd5780601f106105d2576101008083540402835291602001916105fd565b820191906000526020600020905b8154815290600101906020018083116105e057829003601f168201915b5050505050815260200160028201805461061690610fcd565b80601f016020809104026020016040519081016040528092919081815260200182805461064290610fcd565b801561068f5780601f106106645761010080835404028352916020019161068f565b820191906000526020600020905b81548152906001019060200180831161067257829003601f168201915b5050505050815250509050919050565b6000816040516020016106b29190610dc5565b604051602081830303815290604052805190602001209050919050565b60606000806106dd8461069f565b815260200190815260200160002080546106f690610fcd565b80601f016020809104026020016040519081016040528092919081815260200182805461072290610fcd565b801561076f5780601f106107445761010080835404028352916020019161076f565b820191906000526020600020905b81548152906001019060200180831161075257829003601f168201915b50505050509050919050565b600160205280600052604060002060009150905080600001805461079e90610fcd565b80601f01602080910402602001604051908101604052809291908181526020018280546107ca90610fcd565b80156108175780601f106107ec57610100808354040283529160200191610817565b820191906000526020600020905b8154815290600101906020018083116107fa57829003601f168201915b50505050509080600101805461082c90610fcd565b80601f016020809104026020016040519081016040528092919081815260200182805461085890610fcd565b80156108a55780601f1061087a576101008083540402835291602001916108a5565b820191906000526020600020905b81548152906001019060200180831161088857829003601f168201915b5050505050908060020180546108ba90610fcd565b80601f01602080910402602001604051908101604052809291908181526020018280546108e690610fcd565b80156109335780601f1061090857610100808354040283529160200191610933565b820191906000526020600020905b81548152906001019060200180831161091657829003601f168201915b5050505050905083565b60028290806001815401808255809150506001900390600052602060002001600090919091909150908161097191906111b4565b508060008061097f8561069f565b8152602001908152602001600020908161099991906111b4565b505050565b60405180606001604052806060815260200160608152602001606081525090565b6000604051905090565b600080fd5b600080fd5b600080fd5b600080fd5b6000601f19601f8301169050919050565b7f4e487b7100000000000000000000000000000000000000000000000000000000600052604160045260246000fd5b610a26826109dd565b810181811067ffffffffffffffff82111715610a4557610a446109ee565b5b80604052505050565b6000610a586109bf565b9050610a648282610a1d565b919050565b600067ffffffffffffffff821115610a8457610a836109ee565b5b610a8d826109dd565b9050602081019050919050565b82818337600083830152505050565b6000610abc610ab784610a69565b610a4e565b905082815260208101848484011115610ad857610ad76109d8565b5b610ae3848285610a9a565b509392505050565b600082601f830112610b0057610aff6109d3565b5b8135610b10848260208601610aa9565b91505092915050565b600080fd5b600060608284031215610b3457610b33610b19565b5b81905092915050565b60008060408385031215610b5457610b536109c9565b5b600083013567ffffffffffffffff811115610b7257610b716109ce565b5b610b7e85828601610aeb565b925050602083013567ffffffffffffffff811115610b9f57610b9e6109ce565b5b610bab85828601610b1e565b9150509250929050565b600081519050919050565b600082825260208201905092915050565b6000819050602082019050919050565b600081519050919050565b600082825260208201905092915050565b60005b83811015610c1b578082015181840152602081019050610c00565b60008484015250505050565b6000610c3282610be1565b610c3c8185610bec565b9350610c4c818560208601610bfd565b610c55816109dd565b840191505092915050565b6000610c6c8383610c27565b905092915050565b6000602082019050919050565b6000610c8c82610bb5565b610c968185610bc0565b935083602082028501610ca885610bd1565b8060005b85811015610ce45784840389528151610cc58582610c60565b9450610cd083610c74565b925060208a01995050600181019050610cac565b50829750879550505050505092915050565b60006020820190508181036000830152610d108184610c81565b905092915050565b6000819050919050565b610d2b81610d18565b8114610d3657600080fd5b50565b600081359050610d4881610d22565b92915050565b600060208284031215610d6457610d636109c9565b5b6000610d7284828501610d39565b91505092915050565b600082825260208201905092915050565b6000610d9782610be1565b610da18185610d7b565b9350610db1818560208601610bfd565b610dba816109dd565b840191505092915050565b60006020820190508181036000830152610ddf8184610d8c565b905092915050565b600060208284031215610dfd57610dfc6109c9565b5b600082013567ffffffffffffffff811115610e1b57610e1a6109ce565b5b610e2784828501610aeb565b91505092915050565b60006060830160008301518482036000860152610e4d8282610c27565b91505060208301518482036020860152610e678282610c27565b91505060408301518482036040860152610e818282610c27565b9150508091505092915050565b60006020820190508181036000830152610ea88184610e30565b905092915050565b610eb981610d18565b82525050565b6000602082019050610ed46000830184610eb0565b92915050565b60006060820190508181036000830152610ef48186610d8c565b90508181036020830152610f088185610d8c565b90508181036040830152610f1c8184610d8c565b9050949350505050565b60008060408385031215610f3d57610f3c6109c9565b5b600083013567ffffffffffffffff811115610f5b57610f5a6109ce565b5b610f6785828601610aeb565b925050602083013567ffffffffffffffff811115610f8857610f876109ce565b5b610f9485828601610aeb565b9150509250929050565b7f4e487b7100000000000000000000000000000000000000000000000000000000600052602260045260246000fd5b60006002820490506001821680610fe557607f821691505b602082108103610ff857610ff7610f9e565b5b50919050565b60008190508160005260206000209050919050565b60006020601f8301049050919050565b600082821b905092915050565b6000600883026110607fffffffffffffffffffffffffffffffffffffffffffffffffffffffffffffffff82611023565b61106a8683611023565b95508019841693508086168417925050509392505050565b6000819050919050565b6000819050919050565b60006110b16110ac6110a784611082565b61108c565b611082565b9050919050565b6000819050919050565b6110cb83611096565b6110df6110d7826110b8565b848454611030565b825550505050565b600090565b6110f46110e7565b6110ff8184846110c2565b505050565b5b81811015611123576111186000826110ec565b600181019050611105565b5050565b601f8211156111685761113981610ffe565b61114284611013565b81016020851015611151578190505b61116561115d85611013565b830182611104565b50505b505050565b600082821c905092915050565b600061118b6000198460080261116d565b1980831691505092915050565b60006111a4838361117a565b9150826002028217905092915050565b6111bd82610be1565b67ffffffffffffffff8111156111d6576111d56109ee565b5b6111e08254610fcd565b6111eb828285611127565b600060209050601f83116001811461121e576000841561120c578287015190505b6112168582611198565b86555061127e565b601f19841661122c86610ffe565b60005b828110156112545784890151825560018201915060208501945060208101905061122f565b86831015611271578489015161126d601f89168261117a565b8355505b6001600288020188555050505b505050505050565b600080fd5b600080fd5b600080fd5b600080833560016020038436030381126112b2576112b1611286565b5b80840192508235915067ffffffffffffffff8211156112d4576112d361128b565b5b6020830192506001820236038313156112f0576112ef611290565b5b509250929050565b600082905092915050565b61130d83836112f8565b67ffffffffffffffff811115611326576113256109ee565b5b6113308254610fcd565b61133b828285611127565b6000601f83116001811461136a5760008415611358578287013590505b6113628582611198565b8655506113ca565b601f19841661137886610ffe565b60005b828110156113a05784890135825560018201915060208501945060208101905061137b565b868310156113bd57848901356113b9601f89168261117a565b8355505b6001600288020188555050505b50505050505050565b6113de838383611303565b505050565b60008101600083016113f58185611295565b6114008183866113d3565b5050505060018101602083016114168185611295565b6114218183866113d3565b5050505060028101604083016114378185611295565b6114428183866113d3565b505050505050565b61145482826113e3565b505056fea26469706673582212203670e97aa4189cf41282e22cf2221bfc975c874401068222aba48b84dcad5bbc64736f6c63430008120033",
  "linkReferences": {},
  "deployedLinkReferences": {}
}